:0300000002087C77
:0C087C00787FE4F6D8FD75811E0208C3E9
:1007770057656C636F6D6521002D2D2D2D2D2D2D4A
:100787002D2D2D2D2D2D2D2D2D00446F004D690064
:100797005369004E6F77206F6E004D757369632044
:1007A7002031004D75736963202032004D757369E0
:1007B7006320203300446F23004661004C4F5700ED
:1007C7004D4944444C45004849474800506C6179BD
:1007D700204D757369632031202E2E00506C61798E
:1007E700204D757369632032202E2E00506C61797D
:1007F700204D757369632033202E2E0052650053F8
:100807006F00506C6561736520706C6179003520ED
:100817006E6F74657300313A00323A00333A005212
:100827006523004C61005265636F726465642074D0
:100837006F00547261636B203100547261636B20E7
:100847003200547261636B203300547261636B2012
:10085700203100547261636B20203200547261634F
:100867006B202033004C004D0048004423005223E6
:0508770000FEFCF8F09A
:1004BD00021D008C5B015CE5D9CCC1B6AC99887985
:1004CD00736C66615B564D443D393633302D2B26AA
:1004DD00221E490062736C66615B564D443D4900B6
:1004ED00CFE5D9CCC1B6AC998879490153736C6607
:1004FD00615B564D443D49004A393633302D2B262C
:10050D00221E602300DD060503050706050603050B
:10051D000605030201060503020203050506030293
:10052D0001050302010601010F6022006B1008088E
:10053D000808040410080404080404040404041046
:10054D0010080804040C08101008040404041060BA
:10055D002201000102080805010303030504030538
:10056D000403020201000102030403020304050552
:10057D00040302010F6021008D0707070708090119
:10058D0002030602040404040C0802020404040815
:10059D000202040404020204040C60220127010279
:1005AD000808050103030305040305040302020102
:1005BD000001020304030203040505040302010FF5
:1005CD00602100AE070707070809010203060204B0
:1005DD000404040C080202040404080202040404C6
:1005ED00020204040C4501220000000000450053E6
:1005FD0001010101014501490101010101450058B8
:10060D00010101010145014E020202020245005D98
:10061D00010101010145004500010203044500D817
:10062D000101010101011900011C00011A01011B49
:04063D00010118019E
:10098000F583E0FF74222509F582E43400F583EF56
:10099000F00509E50922AB0AAA0BA90C851082759E
:1009A0008300020738F583EFF074D82509F582E457
:1009B0003400F58322F583E0FF74002509F582E415
:1009C00034002274452509F582E43400F583227F42
:1009D000017E00120BCBC2B4C2B2C2B322FFE5103B
:0809E00075F003A42402FD22BE
:10000300750801120A4E120C667F0C120C447A0713
:1000130079777D05E41204AE7BFF7A077980E4FDEE
:100023007F01120B5F1209E8EFB4100050F7900044
:1000330038F828287302006802007C02009002004E
:10004300A402015D0201710201850201CE020218C0
:1000530002022C0202400202540202B90202CC0242
:1000630002EE02039B120C667A077991120411E4E3
:10007300FD12044AE4FF0202E8120C667A0779943F
:100083001204117D0412044A7F040202E8120C6672
:100093007A07799712041B7D081204697F0802020C
:1000A300E8E51BC394044003020157E51B24FE60EB
:1000B3003B146068240260030201521203DF7A07D3
:1000C30079A112045374DD2509F582E43400120981
:1000D30080B423F1E4F509746B2509F582E4340057
:1000E3001209B512098DB423EE0201521203DF7A0D
:1000F3000779AA12045374002509F582E434011226
:100103000980B423F1E4F509748D2509F582E434FB
:10011300001209B512098DB423EE80331203F07A6D
:100123000779B37D041204B5E4F50974272509F5AD
:1001330082E43401120980B423F1E4F50974AE2595
:1001430009F582E434001209B512098DB423EE05D2
:100153001B020028751B010200A4120C667A0779A2
:10016300BC12041B7D011204697F010202E8120C18
:10017300667A0779C01204407D051204937F050255
:1001830002E8E508C39404503DE50824FE60161414
:1001930060222402702B120C667A0779C31204368C
:1001A300E4F518801C120C667A0779C712043675B9
:1001B3001801800D120C667A0779CE120472751835
:1001C30002050802002875080180B7E51B24FD60BD
:1001D3001514601D24026003020028120C667BFFC5
:1001E3007A0779D38014120C667BFF7A0779E38050
:1001F30009120C667BFF7A0779F3E4FDFF120B5FAC
:10020300750D01750E00750F007B017A00792212BE
:100213000AD4020028120C667A0879031204407D7E
:10022300021204937F020202E8120C667A0879062E
:1002330012047C7D061204A57F060202E8120C66F6
:100243007A0879091204607A087915120472020394
:1002530095E51A24FD602514603D24026003020025
:1002630028120C667A08791D120460750D01750E4B
:1002730001750F227B017A0079538034120C667A60
:1002830008792012049C750D01750E01750F497BC9
:10029300017A0079588019120C667A0879231204BE
:1002A3009C750D01750E01750F4E7B017A00795D0A
:1002B300120A95020028120C667A08792612047C29
:1002C3007D031204A57F03801C120C667BFF7A0852
:1002D300792A7D07E4FF120B5F7D07AF18120C2804
:1002E3007519017F07120B8A020028E51A24FD60A5
:1002F30039146064240260030200281204017A089E
:1003030079391204861209C3E0FF74222509F582A4
:10031300E434011209A5E0FF74532509F582E4349E
:100323000012098DB405DE0203951204017A0879DF
:10033300411204861209C3E0FF74492509F582E4DA
:1003430034011209A5E0FF74582509F582E434004D
:1003530012098DB405DE803A120C667A08792DE411
:10036300FD1204AE7A0879497D091204B5E4F50952
:100373001209C3E0FF744E2509F582E43401120922
:10038300A5E0FF745D2509F582E4340012098DB4FC
:1003930005DEE4F51C020028E51AC394045038E591
:1003A3001A24FE601214601A240270261203F07BD2
:1003B300FF7A08795180141204257BFF7A08795A51
:1003C30080091204257BFF7A0879637D047F01127B
:0C03D3000B5F051A020028751A0180BC9F
:1003DF00120C667BFF7A07799A7D05E4FF120B5F9B
:1003EF0022120C667BFF7A07799A7D05E4FF120BC8
:1003FF005F22120C667BFF7A08792DE4FDFF120B4A
:10040F005F227BFF7D07E4FF120B5F227BFF7D07DF
:10041F00E4FF120B5F22120C667BFF7A07799A7D3D
:10042F0005E4FF120B5F227BFF7D097F01120B5F3B
:10043F00227BFF7D07E4FF120B5F22AF18120C28FF
:10044F00751901227BFF7D047F01120B5FE4F50913
:10045F00227BFFE4FDFF120B5F22AF18120C2875F1
:10046F001901227BFF7D097F01120B5F227BFF7D2C
:10047F0007E4FF120B5F227BFF7D097F01120B5FE9
:10048F00E4F50922AF18120C28751901227BFFE43D
:10049F00FDFF120B5F22AF18120C28751901227B7A
:0E04AF00FFFF120B5F227BFF7F01120B5F220B
:100B0900EB75F009A4245CF582E43401F583E582F0
:0A0B19002CF582E43583F583E0FF3C
:100B2300E4FEEEC39F5009E4FD0DBD01FC0E80F20F
:010B3300229F
:040C2800AC05AB0765
:100C2C00E4FAC2B5120B09D2B5120B090ABA3CF29E
:010C3C002295
:060AD4008B0A8A0B890C5D
:100ADA00E4F510AB0AAA0BA90C85108212099FFD36
:100AEA00AF18120C28AB0DAA0EA90F851082120995
:0E0AFA009FFF120BE40510E510C3942240D5B7
:010B080022CA
:100BE400E4FEEEC39F500FE4FDE4FC0CBC78FC0D66
:060BF400BD7DF60E80EC51
:010BFA0022D8
:100BFB00E4FEEEC39F500FE4FDE4FC0CBC78FC0D4F
:060C0B00BD14F60E80ECA2
:010C110022C0
:100B8A00E519601874D8251C1209ADE518F07445EA
:100B9A00251C1209C7EFF0051CE4F519E51CD394CE
:070BAA00044003E4F51C22E6
:060A95008B0A8A0B890C9C
:100A9B00E4F5101209961209DD120B34AB0DAA0EF8
:100AAB00A90F12099C1209DD120908120996FFAB56
:100ABB000DAA0EA90F12099CFD120C28120BFB0597
:080ACB0010E510C3940540CBB7
:010AD3002200
:100B34008D11EF14600F1460142402701D7BFF7A72
:100B440008796C800E7BFF7A08796E80067BFF7AC9
:0B0B5400087970AD11E4FF120B5F2266
:100908008D11EFB40900506F900917F82828730269
:10091800093202093A02094202094A020952020945
:100928005A02096202096A0209727BFF7A07799101
:10093800803E7BFF7A08797280367BFF7A087903DC
:10094800802E7BFF7A08797580267BFF7A07799459
:10095800801E7BFF7A0779C080167BFF7A087906AC
:10096800800E7BFF7A08792A80067BFF7A077997C1
:08097800AD117F01120B5F229B
:100BCB00AC1DAD1E120765E4FDFCC3ED9FEC9E5002
:080BDB00070DBD00010C80F2C2
:010BE30022EF
:0E0C8B00C2B4C2B2D2B3D2B40000AF90C2B4B1
:010C99002238
:100C66001209CF759001D2B40000C2B47F017E0094
:030C7600020BCBA3
:070C3D007E00120BCB7F3893
:0E0C4400AB071209CF8B90D2B40000C2B422CD
:100C1200AE07120C8BEF20E7F9D2B2C2B38E90D29C
:060C2200B40000C2B42280
:100A4E007F3C120C3D7F05120C3D7F01120C3D12B6
:100A5E000C8BEF20E7F97F08120C44120C8BEF2061
:100A6E00E7F97F01120C44120C8BEF20E7F97F0699
:100A7E00120C44120C8BEF20E7F97F0E120C44126D
:070A8E000C8BEF20E7F922B9
:100BB100EF7006ED4480FA8004ED44C0FAAF0212F2
:090BC1000C44120C8BEF20E7F943
:010BCA002208
:0A0C9A00A903120BB1AF01020C1206
:0A0B5F008F128D138B148A1589166E
:100B6900E4F517AB14AA15A91685178212099FFB7C
:100B7900600EE5132517FDAF12120C9A051780E3D5
:010B89002249
:100C7900E4FDFCC3ED9FEC9E50070DBD00010C8007
:010C8900F278
:010C8A002247
:100C5200907F0074F0F0E0FF5307F0BFF0037FFFD6
:030C6200227F00EE
:010C6500226C
:1009E800780B7C007D007BFF7A0879787E007F0495
:1009F800120712120C52BFFF037FFF227F147E00E2
:100A0800120C79120C52BFFF037FFF22E4FD740B16
:100A18002DF8E6FE7C10907F00F0E4FBFA907F0052
:100A2800E054F05C700DEB2DF50A120C52EFF460F7
:100A38000A80F7EC25E0FC74042BFB0ABA04DE0DEF
:050A4800BD04CBAF0A64
:010A4D002286
:10088800020003E493A3F8E493A34003F68001F283
:1008980008DFF48029E493A3F85407240CC8C33371
:1008A800C4540F4420C8834004F456800146F6DF40
:1008B800E4800B01020408102040809004BDE47E0F
:1008C800019360BCA3FF543F30E509541FFEE49335
:1008D800A360010ECF54C025E060A840B8E493A3FC
:1008E800FAE493A3F8E493A3C8C582C8CAC583CA27
:1008F800F0A3C8C582C8CAC583CADFE9DEE780BEDF
:0106410000B8
:10064200E709F608DFFA8046E709F208DFFA803E9A
:1006520088828C83E709F0A3DFFA8032E309F60887
:10066200DFFA8078E309F208DFFA807088828C83EF
:10067200E309F0A3DFFA806489828A83E0A3F608A3
:10068200DFFA805889828A83E0A3F208DFFA804C7D
:1006920080D280FA80C680D4806980F28033801054
:1006A20080A680EA809A80A880DA80E280CA8033BD
:1006B20089828A83ECFAE493A3C8C582C8CCC58335
:1006C200CCF0A3C8C582C8CCC583CCDFE9DEE78005
:1006D2000D89828A83E493A3F608DFF9ECFAA9F084
:1006E200EDFB2289828A83ECFAE0A3C8C582C8CCDA
:1006F200C583CCF0A3C8C582C8CCC583CCDFEADEF3
:10070200E880DB89828A83E493A3F208DFF980CC54
:1007120088F0EF60010E4E60C388F0ED2402B4044D
:100722000050B9F582EB2402B4040050AF232345F4
:0607320082239006927381
:10073800BB010CE58229F582E5833AF583E0225076
:1007480006E92582F8E622BBFE06E92582F8E222C0
:0D075800E58229F582E5833AF583E49322DA
:10076500EF8DF0A4A8F0CF8CF0A428CE8DF0A42EA8
:02077500FE2262
:00000001FF
